:1000000012C02CC058C12AC029C028C027C026C091
:1000100025C024C023C022C021C020C01FC01EC0D4
:100020001DC01CC01BC011241FBECFE5D4E0DEBF25
:10003000CDBF10E0A0E6B0E0ECE0F3E002C0059038
:100040000D92AA3BB107D9F720E0AAEBB0E001C0BE
:100050001D92AC3BB207E1F767D056C1D1CF982FC4
:10006000907F946092BBEFECF7E03197F1F700C01E
:10007000000092B39B7F92BB8295807F846082BB9D
:100080008FEC97E00197F1F700C0000082B38B7FFF
:1000900082BB0895982F907F956092BBEFECF7E0BC
:1000A0003197F1F700C0000092B39B7F92BB82951D
:1000B000807F856082BB8FEC97E00197F1F700C0ED
:1000C000000082B38B7F82BB08950F931F93CF9361
:1000D000DF938C01C0E0D0E002C0DCDF2196F801A4
:1000E000EC0FFD1F80818111F8CFDF91CF911F911F
:1000F0000F91089582E0B3DF88E2B1DF8EE0AFDFD9
:1001000086E0ADDF81E0ABDF80E8A9DF089587B34B
:10011000837D87BB87B3806187BB88B3806188BBE1
:100120008DB180648DB90895F2DF14BA85B38F6004
:1001300085BB8FEF81BB81B3877F81BB85B788602B
:1001400085BF8BB780688BBF7894D4DF989906C041
:100150008091BB00887F81608093BB00999906C025
:100160008091BB00887F82608093BB009A9906C013
:100170008091BB00887F84608093BB009B991DC0E9
:100180008091BA0086FD19C08823BCF08FEC97E0FF
:100190000197F1F700C0000080EC61DF88E08093F8
:1001A000BB0080E690E091DF9FEF20E782E0915076
:1001B00020408040E1F700C000008091BA0080FF3D
:1001C00010C081E04CDF80E84ADF8AE690E07DDF06
:1001D0009FEF20E782E0915020408040E1F700C08F
:1001E00000008091BA0081FF10C081E038DF80E814
:1001F00036DF86E790E069DF9FEF20E782E09150ED
:1002000020408040E1F700C000008091BA0082FFEA
:1002100010C081E024DF80E822DF82E890E055DF33
:100220009FEF20E782E0915020408040E1F700C03E
:1002300000008091BA0084FF0FC080EC10DF8EE8D0
:1002400090E043DF9FEF20E782E091502040804024
:10025000E1F700C000007ACF85FF0FC080ECFFDE21
:100260008FE990E032DF9FEF20E782E0915020405D
:100270008040E1F700C0000069CF83FF67CF80ECCA
:10028000EEDE8CEA90E021DF9FEF20E782E09150E4
:1002900020408040E1F700C0000058CF8FB98AE1CC
:1002A0008A95F1F700C0779BFECF8AE18A95F1F736
:1002B00000C08FB108951F920F920FB60F921124B4
:1002C0002F933F934F935F936F937F938F939F935E
:1002D000AF93BF93EF93FF938091BB00DFDF8093D9
:1002E000BA001092BB00FF91EF91BF91AF919F9127
:1002F0008F917F916F915F914F913F912F910F90CF
:0C0300000FBE0F901F901895F894FFCFCF
:10030C0053544550204157415900202020466C6FD2
:10031C006F723A203100202020466C6F6F723A20A9
:10032C003200202020466C6F6F723A203300544804
:10033C0045524520495320464952453C213E002018
:10034C002020454D455247454E435900202020540E
:0A035C006F6F20486561767900009C
:00000001FF
