:1000000012C0C6C121C01FC01EC01DC01CC01BC065
:100010001AC019C018C017C016C015C014C013C02C
:1000200012C011C010C011241FBECFE5D4E0DEBF46
:10003000CDBF20E0A0E6B0E001C01D92A536B2071A
:10004000E1F72ED0CEC1DCCF1F920F920FB60F92E8
:1000500011248F9385B38C7F85BB80916400806170
:10006000877F8093640080916000811104C081E0EB
:100070008093600002C0109260008F910F900FBEBD
:100080000F901F90189587B3837D87BB87B38061DE
:1000900087BB88B3806188BB8DB180648DB90895BA
:1000A00011BA8FEF84BB82B38C6382BB85B78A6041
:1000B00085BF8BB7806C8BBF7894E5DF8091600043
:1000C000811134C18091630080FF6AC0809161001A
:1000D000909162008130910529F585B3826085BBDE
:1000E000809164008860809364002FEF84E39CE03B
:1000F000215080409040E1F700C0000085B38D7F23
:1001000085BB80916400877F80936400809160004C
:1001100081110CC1109262001092610081E4809301
:10012000640004C1029709F001C185B3826085BBF8
:10013000809164008860809364002FEF84E39CE0EA
:10014000215080409040E1F700C0000080916000A5
:10015000811109C081E090E090936200809361007A
:1001600082E4809364002FEF84E39CE02150804080
:100170009040E1F700C0000085B38D7F85BB809182
:100180006400877F80936400809160008111CEC0FD
:10019000109262001092610081E480936400C6C0F6
:1001A00081FF57C08091610090916200009739F5FE
:1001B00085B3816085BB8091640088608093640012
:1001C0002FEF84E39CE0215080409040E1F700C095
:1001D000000085B38E7F85BB80916400877F80930C
:1001E0006400809160008111A1C081E090E0909353
:1001F00062008093610082E48093640097C002975C
:1002000009F094C085B3826085BB809164008860EA
:10021000809364002FEF84E39CE021508040904065
:10022000E1F700C0000085B38D7F85BB809164003D
:10023000877F8093640080916000811177C081E0A6
:1002400090E0909362008093610082E48093640068
:100250006DC082FF6BC08091610090916200009739
:10026000E9F585B3816085BB8091640088608093E7
:1002700064002FEF84E39CE0215080409040E1F740
:1002800000C0000080916000811109C081E090E011
:10029000909362008093610082E4809364002FEF6A
:1002A00084E39CE0215080409040E1F700C00000D2
:1002B00085B38E7F85BB80916400877F80936400C7
:1002C00080916000811132C082E090E090936200E2
:1002D0008093610084E48093640028C0019731F525
:1002E00085B3816085BB80916400886080936400E1
:1002F0002FEF84E39CE0215080409040E1F700C064
:10030000000085B38E7F85BB80916400877F8093DA
:10031000640080916000811109C082E090E09093B8
:1003200062008093610084E48093640084991BC020
:100330002FEF80E792E0215080409040E1F700C02D
:10034000000085B3806285BB80E2809364002FEF5C
:1003500080E792E0215080409040E1F700C000002B
:1003600085B38F7D85BB8599A9CE8091640080611E
:1003700080936400A3CE8FB98AE18A95F1F700C01B
:10038000779BFECF8AE18A95F1F700C08FB108957F
:100390001F920F920FB60F9211242F933F934F93FA
:1003A0005F936F937F938F939F93AF93BF93EF93DD
:1003B000FF9380916400DFDF8093630010926400FC
:1003C000FF91EF91BF91AF919F918F917F916F912D
:1003D0005F914F913F912F910F900FBE0F901F9003
:0603E0001895F894FFCF10
:00000001FF
