:1000000012C00CC137C11FC01EC01DC01CC01BC008
:100010001AC019C018C017C016C015C014C013C02C
:1000200012C011C010C011241FBECFE5D4E0DEBF46
:10003000CDBF20E0A0E6B0E001C01D92AC36B20713
:10004000E1F7A3D0A3C2DCCF83E287B987E886B902
:10005000089586B1806486B93699FECF85B18093C4
:10006000690090E09C01220F331F220F331F820F83
:10007000931F6FEF70E057D2072E000C880B990B7F
:1000800063D16093640070936500809366009093E1
:10009000670020E030E048EC52E4BAD122D17093FE
:1000A0006B0060936A006E3571404CF08091630084
:1000B00088608093630081E080936200089580915E
:1000C0006300877F809363001092620008958FB56C
:1000D00082688FBD8EB58A618EBD8FE19EE497BD2B
:1000E00086BD089548EE53E0849F9001859F300DB2
:1000F000949F300D1124A3E8BDE228D296958795F0
:10010000929582958F7089279F70892788519C4F7F
:100110009BBD8ABD089580E090E0E4DF809163009C
:100120008F7E8093630081E0809361002FEF89E6EA
:1001300098E1215080409040E1F700C00000089510
:1001400084EB90E0CFDF8091630080618093630057
:1001500010926100809160008111DDDF2FEF89E650
:1001600098E1215080409040E1F700C000000895E0
:1001700087B3837D87BB87B3806187BB88B380618A
:1001800088BB8DB180648DB9089514BA87E085BBB2
:1001900087B3826087BB9BDF57DFEADF85B78E605E
:1001A00085BF8BB7806C8BBF789453DF989907C05D
:1001B00080916300887F81608093630011C099996A
:1001C00007C080916300887F82608093630008C0CD
:1001D0009A9906C080916300887F84608093630051
:1001E0008091680081FF05C096DF81E08093600008
:1001F00002C0109260008091680083FFD6CFA0DF1C
:10020000D4CF8FB98AE18A95F1F700C0779BFECFF2
:100210008AE18A95F1F700C08FB108951F920F927D
:100220000FB60F9211242F933F934F935F936F93C9
:100230007F938F939F93AF93BF93EF93FF9380919F
:100240006300DFDF80936800809163008871809392
:100250006300FF91EF91BF91AF919F918F917F913B
:100260006F915F914F913F912F910F900FBE0F9023
:100270001F9018951F920F920FB60F9211242F9373
:100280003F934F935F936F937F938F939F93AF931E
:10029000BF93EF93FF93DDDE80916100882351F0DF
:1002A0009091680092FD06C090916000911102C08B
:1002B00047DF06C0811104C08091680080FF2BDFFA
:1002C000FF91EF91BF91AF919F918F917F916F912E
:1002D0005F914F913F912F910F900FBE0F901F9004
:1002E000189504D06894B1118DC0089570D088F02D
:1002F0009F5790F0B92F9927B751A0F0D1F0660F12
:10030000771F881F991F1AF0BA95C9F712C0B1302C
:1003100081F077D0B1E0089574C0672F782F8827D7
:10032000B85F39F0B93FCCF3869577956795B3956B
:10033000D9F73EF490958095709561957F4F8F4FDA
:100340009F4F0895E89409C097FB3EF490958095DF
:10035000709561957F4F8F4F9F4F9923A9F0F92F8B
:1003600096E9BB279395F695879577956795B79509
:10037000F111F8CFFAF4BB0F11F460FF1BC06F5FEF
:100380007F4F8F4F9F4F16C0882311F096E911C001
:10039000772321F09EE8872F762F05C0662371F022
:1003A00096E8862F70E060E02AF09A95660F771F36
:1003B000881FDAF7880F9695879597F9089557FD66
:1003C0009058440F551F59F05F3F71F04795880FC3
:1003D00097FB991F61F09F3F79F08795089512165A
:1003E00013061406551FF2CF4695F1DF08C0161606
:1003F00017061806991FF1CF8695710561050894B7
:100400000895E894BB2766277727CB0197F90895CD
:100410000BD078C069D028F06ED018F0952309F081
:100420005AC05FC01124EECFCADFA0F3959FD1F36D
:10043000950F50E0551F629FF001729FBB27F00D92
:10044000B11D639FAA27F00DB11DAA1F649F6627E7
:10045000B00DA11D661F829F2227B00DA11D621F36
:10046000739FB00DA11D621F839FA00D611D221FF0
:10047000749F3327A00D611D231F849F600D211DD4
:10048000822F762F6A2F11249F5750408AF0E1F077
:1004900088234AF0EE0FFF1FBB1F661F771F881FC0
:1004A00091505040A9F79E3F510570F014C0AACF5B
:1004B0005F3FECF3983EDCF3869577956795B795AB
:1004C000F795E7959F5FC1F7FE2B880F911D9695D5
:1004D000879597F9089597F99F6780E870E060E045
:1004E00008959FEF80EC089500240A9416161706CD
:1004F00018060906089500240A9412161306140615
:1005000005060895092E0394000C11F4882352F077
:10051000BB0F40F4BF2B11F460FF04C06F5F7F4F2F
:100520008F4F9F4F089597FB072E16F4009406D027
:1005300077FD08D017D007FC05D03EF49095819543
:100540009F4F0895709561957F4F0895A29FB001C8
:10055000B39FC001A39F01D0B29F700D811D1124D4
:10056000911D0895AA1BBB1B51E107C0AA1FBB1F09
:10057000A617B70710F0A61BB70B881F991F5A952F
:10058000A9F780959095BC01CD010895F894FFCF0F
:00000001FF
