:1000000012C02CC02BC02AC029C028C027C026C0BF
:1000100025C024C023C022C021C020C01FC01EC0D4
:100020001DC01CC01BC011241FBECFE5D4E0DEBF25
:10003000CDBF10E0A0E6B0E0E0E0F5E002C0059042
:100040000D92A236B107D9F720E0A2E6B0E001C0D8
:100050001D92A137B207E1F79FD150C2D1CF809155
:100060006000813039F480916D00887F81608093D9
:100070006D0011C0823039F480916D00887F8260FC
:1000800080936D0008C0833031F480916D00887FCB
:10009000846080936D0080916700882331F08091A7
:1000A0006D00886080936D0005C080916D00877F32
:1000B00080936D0080916300882331F080916D0002
:1000C000806180936D0005C080916D008F7E80936C
:1000D0006D0080916400882341F080916D00806202
:1000E00080936D0081E085BB06C080916D008F7D9F
:1000F00080936D0015BA90916500992331F080913D
:100100006D00806480936D0005C080916D008F7BD1
:1001100080936D0040916600442331F080916D0022
:10012000806880936D0005C080916D008F7780930B
:100130006D00992331F080916C00816080936C0098
:1001400005C080916C008E7F80936C00509164009C
:1001500051110EC08091620081110AC0809163002C
:10016000811106C080916800882341F0911106C07A
:1001700080916C00826080936C0005C080916C005F
:100180008D7F80936C0020916800222331F0809154
:100190006C00846080936C0005C080916C008B7F44
:1001A00080936C0030916A00311104C08091690025
:1001B000882341F0411106C080916C0088608093D3
:1001C0006C0005C080916C00877F80936C008091EB
:1001D000600040916900841304C0911102C0109224
:1001E0006900381304C0911102C010926A002111F5
:1001F00089C090916A00911105C020916900222365
:1002000009F480C02091670021117CC02091630017
:10021000211178C0511176C0813021F5809169009B
:10022000823011F0923079F420916B00226020939B
:100230006B00923011F410926A00823009F067C0AE
:1002400010926900089520916B00246020936B0048
:10025000933011F410926A00833009F058C0109264
:1002600069000895823051F5913041F480916B001E
:10027000816080936B0010926A000895933041F47E
:1002800080916B00846080936B0010926A000895E7
:1002900080916900833041F480916B008460809389
:1002A0006B00109269000895813089F580916B0090
:1002B000816080936B00109269000895833039F556
:1002C00080916900823011F0923071F420916B00BE
:1002D000226020936B00923011F410926A008230F9
:1002E000B1F410926900089520916B002160209371
:1002F0006B00913011F410926A00813041F4109239
:100300006900089580916B00887F80936B00089549
:100310008FE287BB87B38F7E87BB88B38F6188BB33
:1003200081E58DB9089598B39E7F98BB9AE19A951F
:10033000F1F700C08FB9779BFECF8FB198B3916072
:1003400098BB9AE19A95F1F700C0089598B39D7F04
:1003500098BB9AE19A95F1F700C08FB9779BFECFD1
:100360008FB198B3926098BB9AE19A95F1F700C06B
:10037000089598B39B7F98BB9AE19A95F1F700C0D6
:100380008FB9779BFECF8FB198B3946098BB9AE1F9
:100390009A95F1F700C008958FEF81BB81E084BB8F
:1003A000B7DF2FEF81EE94E0215080409040E1F7DD
:1003B00000C0000080916D00B6DF80936F0082BBAB
:1003C00080916F0080FF04C091E090936A000BC0A1
:1003D00081FF04C092E090936A0005C082FF03C0D1
:1003E00093E090936A0083FF04C081E080936800EB
:1003F00002C0109268002FEF80E792E02150804009
:100400009040E1F700C0000080916C009FDF809376
:100410006E0082BB80916E0080FF04C091E09093DB
:1004200069000BC081FF04C092E09093690005C091
:1004300082FF03C093E09093690083FF04C091E0C2
:100440009093670002C01092670084FF04C081E0AF
:100450008093660002C0109266002FEF80E792E062
:10046000215080409040E1F700C0000080916B0077
:1004700080DF8093700082BB8091700082FF04C097
:1004800093E0909360000BC081FF04C092E09093D2
:10049000600005C080FF03C091E09093600083FF7F
:1004A00004C091E09093650002C01092650084FF43
:1004B0000AC090916400992319F01092640003C05F
:1004C00091E09093640085FF04C091E090936300F5
:1004D00002C01092630086FF04C081E08093620036
:1004E00002C0109262002FEF80E792E0215080401E
:1004F0009040E1F700C00000B2DD5CCFF894FFCF80
:020500000100F8
:00000001FF
